{
  "contractName": "OpenDefiNFTFactory",
  "abi": [
    {
      "inputs": [
        {
          "internalType": "string",
          "name": "_baseeMetadataURI",
          "type": "string"
        }
      ],
      "stateMutability": "nonpayable",
      "type": "constructor"
    },
    {
      "anonymous": false,
      "inputs": [
        {
          "indexed": false,
          "internalType": "address",
          "name": "nftAddress",
          "type": "address"
        }
      ],
      "name": "Create1155Collection",
      "type": "event"
    },
    {
      "anonymous": false,
      "inputs": [
        {
          "indexed": true,
          "internalType": "address",
          "name": "previousOwner",
          "type": "address"
        },
        {
          "indexed": true,
          "internalType": "address",
          "name": "newOwner",
          "type": "address"
        }
      ],
      "name": "OwnershipTransferred",
      "type": "event"
    },
    {
      "inputs": [],
      "name": "baseMetadataURI",
      "outputs": [
        {
          "internalType": "string",
          "name": "",
          "type": "string"
        }
      ],
      "stateMutability": "view",
      "type": "function",
      "constant": true
    },
    {
      "inputs": [],
      "name": "owner",
      "outputs": [
        {
          "internalType": "address",
          "name": "",
          "type": "address"
        }
      ],
      "stateMutability": "view",
      "type": "function",
      "constant": true
    },
    {
      "inputs": [],
      "name": "renounceOwnership",
      "outputs": [],
      "stateMutability": "nonpayable",
      "type": "function"
    },
    {
      "inputs": [
        {
          "internalType": "address",
          "name": "newOwner",
          "type": "address"
        }
      ],
      "name": "transferOwnership",
      "outputs": [],
      "stateMutability": "nonpayable",
      "type": "function"
    },
    {
      "inputs": [
        {
          "internalType": "string",
          "name": "_newURI",
          "type": "string"
        }
      ],
      "name": "updateBaseMetaDataURI",
      "outputs": [
        {
          "internalType": "bool",
          "name": "",
          "type": "bool"
        }
      ],
      "stateMutability": "nonpayable",
      "type": "function"
    },
    {
      "inputs": [
        {
          "internalType": "string",
          "name": "_collectionName",
          "type": "string"
        },
        {
          "internalType": "string",
          "name": "_collectionSymbol",
          "type": "string"
        }
      ],
      "name": "createCollection",
      "outputs": [],
      "stateMutability": "nonpayable",
      "type": "function"
    }
  ],
  "bytecode": "0x60806040523480156200001157600080fd5b506040516200579238038062005792833981810160405281019062000037919062000265565b620000576200004b6200007760201b60201c565b6200007f60201b60201c565b80600190805190602001906200006f92919062000143565b50506200041a565b600033905090565b60008060009054906101000a900473ffffffffffffffffffffffffffffffffffffffff169050816000806101000a81548173ffffffffffffffffffffffffffffffffffffffff021916908373ffffffffffffffffffffffffffffffffffffffff1602179055508173ffffffffffffffffffffffffffffffffffffffff168173ffffffffffffffffffffffffffffffffffffffff167f8be0079c531659141344cd1fd0a4f28419497f9722a3daafe3b4186f6b6457e060405160405180910390a35050565b82805462000151906200033f565b90600052602060002090601f016020900481019282620001755760008555620001c1565b82601f106200019057805160ff1916838001178555620001c1565b82800160010185558215620001c1579182015b82811115620001c0578251825591602001919060010190620001a3565b5b509050620001d09190620001d4565b5090565b5b80821115620001ef576000816000905550600101620001d5565b5090565b60006200020a6200020484620002d3565b620002aa565b9050828152602081018484840111156200022357600080fd5b6200023084828562000309565b509392505050565b600082601f8301126200024a57600080fd5b81516200025c848260208601620001f3565b91505092915050565b6000602082840312156200027857600080fd5b600082015167ffffffffffffffff8111156200029357600080fd5b620002a18482850162000238565b91505092915050565b6000620002b6620002c9565b9050620002c4828262000375565b919050565b6000604051905090565b600067ffffffffffffffff821115620002f157620002f0620003da565b5b620002fc8262000409565b9050602081019050919050565b60005b83811015620003295780820151818401526020810190506200030c565b8381111562000339576000848401525b50505050565b600060028204905060018216806200035857607f821691505b602082108114156200036f576200036e620003ab565b5b50919050565b620003808262000409565b810181811067ffffffffffffffff82111715620003a257620003a1620003da565b5b80604052505050565b7f4e487b7100000000000000000000000000000000000000000000000000000000600052602260045260246000fd5b7f4e487b7100000000000000000000000000000000000000000000000000000000600052604160045260246000fd5b6000601f19601f8301169050919050565b615368806200042a6000396000f3fe60806040523480156200001157600080fd5b50600436106200006a5760003560e01c8063176b9b75146200006f5780635b2bd79e146200008f578063715018a614620000b15780638894378114620000bd5780638da5cb5b14620000f3578063f2fde38b1462000115575b600080fd5b6200008d6004803603810190620000879190620007b7565b62000135565b005b6200009962000238565b604051620000a89190620009a1565b60405180910390f35b620000bb620002ce565b005b620000db6004803603810190620000d5919062000772565b6200035f565b604051620000ea919062000984565b60405180910390f35b620000fd62000406565b6040516200010c919062000967565b60405180910390f35b6200013360048036038101906200012d919062000746565b6200042f565b005b6200013f62000533565b73ffffffffffffffffffffffffffffffffffffffff166200015f62000406565b73ffffffffffffffffffffffffffffffffffffffff1614620001b8576040517f08c379a0000000000000000000000000000000000000000000000000000000008152600401620001af9062000a39565b60405180910390fd5b600060018383604051620001cc90620005ff565b620001da93929190620009c5565b604051809103906000f080158015620001f7573d6000803e3d6000fd5b5090507ff3a40469a46b868ddafdfae78b21bb35fa398b0fd40509aeb9d99cc5f15edce6816040516200022b919062000967565b60405180910390a1505050565b60018054620002479062000b70565b80601f0160208091040260200160405190810160405280929190818152602001828054620002759062000b70565b8015620002c65780601f106200029a57610100808354040283529160200191620002c6565b820191906000526020600020905b815481529060010190602001808311620002a857829003601f168201915b505050505081565b620002d862000533565b73ffffffffffffffffffffffffffffffffffffffff16620002f862000406565b73ffffffffffffffffffffffffffffffffffffffff161462000351576040517f08c379a0000000000000000000000000000000000000000000000000000000008152600401620003489062000a39565b60405180910390fd5b6200035d60006200053b565b565b60006200036b62000533565b73ffffffffffffffffffffffffffffffffffffffff166200038b62000406565b73ffffffffffffffffffffffffffffffffffffffff1614620003e4576040517f08c379a0000000000000000000000000000000000000000000000000000000008152600401620003db9062000a39565b60405180910390fd5b8160019080519060200190620003fc9291906200060d565b5060019050919050565b60008060009054906101000a900473ffffffffffffffffffffffffffffffffffffffff16905090565b6200043962000533565b73ffffffffffffffffffffffffffffffffffffffff166200045962000406565b73ffffffffffffffffffffffffffffffffffffffff1614620004b2576040517f08c379a0000000000000000000000000000000000000000000000000000000008152600401620004a99062000a39565b60405180910390fd5b600073ffffffffffffffffffffffffffffffffffffffff168173ffffffffffffffffffffffffffffffffffffffff16141562000525576040517f08c379a00000000000000000000000000000000000000000000000000000000081526004016200051c9062000a17565b60405180910390fd5b62000530816200053b565b50565b600033905090565b60008060009054906101000a900473ffffffffffffffffffffffffffffffffffffffff169050816000806101000a81548173ffffffffffffffffffffffffffffffffffffffff021916908373ffffffffffffffffffffffffffffffffffffffff1602179055508173ffffffffffffffffffffffffffffffffffffffff168173ffffffffffffffffffffffffffffffffffffffff167f8be0079c531659141344cd1fd0a4f28419497f9722a3daafe3b4186f6b6457e060405160405180910390a35050565b6146558062000cde83390190565b8280546200061b9062000b70565b90600052602060002090601f0160209004810192826200063f57600085556200068b565b82601f106200065a57805160ff19168380011785556200068b565b828001600101855582156200068b579182015b828111156200068a5782518255916020019190600101906200066d565b5b5090506200069a91906200069e565b5090565b5b80821115620006b95760008160009055506001016200069f565b5090565b6000620006d4620006ce8462000a84565b62000a5b565b905082815260208101848484011115620006ed57600080fd5b620006fa84828562000b2b565b509392505050565b600081359050620007138162000cc3565b92915050565b600082601f8301126200072b57600080fd5b81356200073d848260208601620006bd565b91505092915050565b6000602082840312156200075957600080fd5b6000620007698482850162000702565b91505092915050565b6000602082840312156200078557600080fd5b600082013567ffffffffffffffff811115620007a057600080fd5b620007ae8482850162000719565b91505092915050565b60008060408385031215620007cb57600080fd5b600083013567ffffffffffffffff811115620007e657600080fd5b620007f48582860162000719565b925050602083013567ffffffffffffffff8111156200081257600080fd5b620008208582860162000719565b9150509250929050565b620008358162000aeb565b82525050565b620008468162000aff565b82525050565b6000620008598262000acf565b62000865818562000ada565b93506200087781856020860162000b3a565b620008828162000c3a565b840191505092915050565b600081546200089c8162000b70565b620008a8818662000ada565b94506001821660008114620008c65760018114620008d95762000910565b60ff198316865260208601935062000910565b620008e48562000aba565b60005b838110156200090857815481890152600182019150602081019050620008e7565b808801955050505b50505092915050565b60006200092860268362000ada565b9150620009358262000c4b565b604082019050919050565b60006200094f60208362000ada565b91506200095c8262000c9a565b602082019050919050565b60006020820190506200097e60008301846200082a565b92915050565b60006020820190506200099b60008301846200083b565b92915050565b60006020820190508181036000830152620009bd81846200084c565b905092915050565b60006060820190508181036000830152620009e181866200088d565b90508181036020830152620009f781856200084c565b9050818103604083015262000a0d81846200084c565b9050949350505050565b6000602082019050818103600083015262000a328162000919565b9050919050565b6000602082019050818103600083015262000a548162000940565b9050919050565b600062000a6762000a7a565b905062000a75828262000ba6565b919050565b6000604051905090565b600067ffffffffffffffff82111562000aa25762000aa162000c0b565b5b62000aad8262000c3a565b9050602081019050919050565b60008190508160005260206000209050919050565b600081519050919050565b600082825260208201905092915050565b600062000af88262000b0b565b9050919050565b60008115159050919050565b600073ffffffffffffffffffffffffffffffffffffffff82169050919050565b82818337600083830152505050565b60005b8381101562000b5a57808201518184015260208101905062000b3d565b8381111562000b6a576000848401525b50505050565b6000600282049050600182168062000b8957607f821691505b6020821081141562000ba05762000b9f62000bdc565b5b50919050565b62000bb18262000c3a565b810181811067ffffffffffffffff8211171562000bd35762000bd262000c0b565b5b80604052505050565b7f4e487b7100000000000000000000000000000000000000000000000000000000600052602260045260246000fd5b7f4e487b7100000000000000000000000000000000000000000000000000000000600052604160045260246000fd5b6000601f19601f8301169050919050565b7f4f776e61626c653a206e6577206f776e657220697320746865207a65726f206160008201527f6464726573730000000000000000000000000000000000000000000000000000602082015250565b7f4f776e61626c653a2063616c6c6572206973206e6f7420746865206f776e6572600082015250565b62000cce8162000aeb565b811462000cda57600080fd5b5056fe60806040523480156200001157600080fd5b5060405162004655380380620046558339818101604052810190620000379190620002cc565b826200004981620000c060201b60201c565b506200006a6200005e620000dc60201b60201c565b620000e460201b60201c565b6000600360146101000a81548160ff02191690831515021790555081600490805190602001906200009d929190620001aa565b508060059080519060200190620000b6929190620001aa565b50505050620004dd565b8060029080519060200190620000d8929190620001aa565b5050565b600033905090565b6000600360009054906101000a900473ffffffffffffffffffffffffffffffffffffffff16905081600360006101000a81548173ffffffffffffffffffffffffffffffffffffffff021916908373ffffffffffffffffffffffffffffffffffffffff1602179055508173ffffffffffffffffffffffffffffffffffffffff168173ffffffffffffffffffffffffffffffffffffffff167f8be0079c531659141344cd1fd0a4f28419497f9722a3daafe3b4186f6b6457e060405160405180910390a35050565b828054620001b89062000402565b90600052602060002090601f016020900481019282620001dc576000855562000228565b82601f10620001f757805160ff191683800117855562000228565b8280016001018555821562000228579182015b82811115620002275782518255916020019190600101906200020a565b5b5090506200023791906200023b565b5090565b5b80821115620002565760008160009055506001016200023c565b5090565b6000620002716200026b8462000396565b6200036d565b9050828152602081018484840111156200028a57600080fd5b62000297848285620003cc565b509392505050565b600082601f830112620002b157600080fd5b8151620002c38482602086016200025a565b91505092915050565b600080600060608486031215620002e257600080fd5b600084015167ffffffffffffffff811115620002fd57600080fd5b6200030b868287016200029f565b935050602084015167ffffffffffffffff8111156200032957600080fd5b62000337868287016200029f565b925050604084015167ffffffffffffffff8111156200035557600080fd5b62000363868287016200029f565b9150509250925092565b6000620003796200038c565b905062000387828262000438565b919050565b6000604051905090565b600067ffffffffffffffff821115620003b457620003b36200049d565b5b620003bf82620004cc565b9050602081019050919050565b60005b83811015620003ec578082015181840152602081019050620003cf565b83811115620003fc576000848401525b50505050565b600060028204905060018216806200041b57607f821691505b602082108114156200043257620004316200046e565b5b50919050565b6200044382620004cc565b810181811067ffffffffffffffff821117156200046557620004646200049d565b5b80604052505050565b7f4e487b7100000000000000000000000000000000000000000000000000000000600052602260045260246000fd5b7f4e487b7100000000000000000000000000000000000000000000000000000000600052604160045260246000fd5b6000601f19601f8301169050919050565b61416880620004ed6000396000f3fe608060405234801561001057600080fd5b50600436106101365760003560e01c8063715018a6116100b8578063a22cb4651161007c578063a22cb46514610325578063b390c0ab14610341578063c3a49d8a1461035d578063e985e9c514610379578063f242432a146103a9578063f2fde38b146103c557610136565b8063715018a6146102a75780638456cb59146102b15780638da5cb5b146102cf578063931688cb146102ed5780639bd7441d1461030957610136565b80631b2ef1ca116100ff5780631b2ef1ca146102035780632eb2c2d61461021f5780633f4ba83a1461023b5780634e1273f4146102595780635c975abb1461028957610136565b8062fdd58e1461013b57806301ffc9a71461016b578063095bcdb61461019b57806309ad6082146101b75780630e89341c146101d3575b600080fd5b61015560048036038101906101509190612d19565b6103e1565b604051610162919061375a565b60405180910390f35b61018560048036038101906101809190612f13565b6104aa565b60405161019291906134fd565b60405180910390f35b6101b560048036038101906101b09190612d55565b61058c565b005b6101d160048036038101906101cc9190612ea7565b6105f5565b005b6101ed60048036038101906101e89190612fa6565b610690565b6040516101fa9190613518565b60405180910390f35b61021d60048036038101906102189190612fcf565b610724565b005b61023960048036038101906102349190612b8f565b6107bf565b005b610243610860565b60405161025091906134fd565b60405180910390f35b610273600480360381019061026e9190612da4565b6108ed565b60405161028091906134a4565b60405180910390f35b610291610a9e565b60405161029e91906134fd565b60405180910390f35b6102af610ab5565b005b6102b9610b3d565b6040516102c691906134fd565b60405180910390f35b6102d7610bca565b6040516102e49190613382565b60405180910390f35b61030760048036038101906103029190612f65565b610bf4565b005b610323600480360381019061031e9190612ea7565b610c7c565b005b61033f600480360381019061033a9190612cdd565b610c8b565b005b61035b60048036038101906103569190612fcf565b610e0c565b005b61037760048036038101906103729190612e10565b610e1b565b005b610393600480360381019061038e9190612b53565b610f62565b6040516103a091906134fd565b60405180910390f35b6103c360048036038101906103be9190612c4e565b610ff6565b005b6103df60048036038101906103da9190612b2a565b611097565b005b60008073ffffffffffffffffffffffffffffffffffffffff168373ffffffffffffffffffffffffffffffffffffffff161415610452576040517f08c379a00000000000000000000000000000000000000000000000000000000081526004016104499061359a565b60405180910390fd5b60008083815260200190815260200160002060008473ffffffffffffffffffffffffffffffffffffffff1673ffffffffffffffffffffffffffffffffffffffff16815260200190815260200160002054905092915050565b60007fd9b67a26000000000000000000000000000000000000000000000000000000007bffffffffffffffffffffffffffffffffffffffffffffffffffffffff1916827bffffffffffffffffffffffffffffffffffffffffffffffffffffffff1916148061057557507f0e89341c000000000000000000000000000000000000000000000000000000007bffffffffffffffffffffffffffffffffffffffffffffffffffffffff1916827bffffffffffffffffffffffffffffffffffffffffffffffffffffffff1916145b8061058557506105848261118f565b5b9050919050565b610594610a9e565b156105d4576040517f08c379a00000000000000000000000000000000000000000000000000000000081526004016105cb9061361a565b60405180910390fd5b6105f033848484604051806020016040528060008152506111f9565b505050565b6105fd61124a565b73ffffffffffffffffffffffffffffffffffffffff1661061b610bca565b73ffffffffffffffffffffffffffffffffffffffff1614610671576040517f08c379a0000000000000000000000000000000000000000000000000000000008152600401610668906136ba565b60405180910390fd5b61068c33838360405180602001604052806000815250611252565b5050565b60606002805461069f906139fa565b80601f01602080910402602001604051908101604052809291908181526020018280546106cb906139fa565b80156107185780601f106106ed57610100808354040283529160200191610718565b820191906000526020600020905b8154815290600101906020018083116106fb57829003601f168201915b50505050509050919050565b61072c61124a565b73ffffffffffffffffffffffffffffffffffffffff1661074a610bca565b73ffffffffffffffffffffffffffffffffffffffff16146107a0576040517f08c379a0000000000000000000000000000000000000000000000000000000008152600401610797906136ba565b60405180910390fd5b6107bb338383604051806020016040528060008152506114bc565b5050565b6107c761124a565b73ffffffffffffffffffffffffffffffffffffffff168573ffffffffffffffffffffffffffffffffffffffff16148061080d575061080c8561080761124a565b610f62565b5b61084c576040517f08c379a00000000000000000000000000000000000000000000000000000000081526004016108439061365a565b60405180910390fd5b6108598585858585611652565b5050505050565b600061086a61124a565b73ffffffffffffffffffffffffffffffffffffffff16610888610bca565b73ffffffffffffffffffffffffffffffffffffffff16146108de576040517f08c379a00000000000000000000000000000000000000000000000000000000081526004016108d5906136ba565b60405180910390fd5b6108e66119b2565b6001905090565b60608151835114610933576040517f08c379a000000000000000000000000000000000000000000000000000000000815260040161092a906136fa565b60405180910390fd5b6000835167ffffffffffffffff811115610976577f4e487b7100000000000000000000000000000000000000000000000000000000600052604160045260246000fd5b6040519080825280602002602001820160405280156109a45781602001602082028036833780820191505090505b50905060005b8451811015610a9357610a3d8582815181106109ef577f4e487b7100000000000000000000000000000000000000000000000000000000600052603260045260246000fd5b6020026020010151858381518110610a30577f4e487b7100000000000000000000000000000000000000000000000000000000600052603260045260246000fd5b60200260200101516103e1565b828281518110610a76577f4e487b7100000000000000000000000000000000000000000000000000000000600052603260045260246000fd5b60200260200101818152505080610a8c90613a5d565b90506109aa565b508091505092915050565b6000600360149054906101000a900460ff16905090565b610abd61124a565b73ffffffffffffffffffffffffffffffffffffffff16610adb610bca565b73ffffffffffffffffffffffffffffffffffffffff1614610b31576040517f08c379a0000000000000000000000000000000000000000000000000000000008152600401610b28906136ba565b60405180910390fd5b610b3b6000611a54565b565b6000610b4761124a565b73ffffffffffffffffffffffffffffffffffffffff16610b65610bca565b73ffffffffffffffffffffffffffffffffffffffff1614610bbb576040517f08c379a0000000000000000000000000000000000000000000000000000000008152600401610bb2906136ba565b60405180910390fd5b610bc3611b1a565b6001905090565b6000600360009054906101000a900473ffffffffffffffffffffffffffffffffffffffff16905090565b610bfc61124a565b73ffffffffffffffffffffffffffffffffffffffff16610c1a610bca565b73ffffffffffffffffffffffffffffffffffffffff1614610c70576040517f08c379a0000000000000000000000000000000000000000000000000000000008152600401610c67906136ba565b60405180910390fd5b610c7981611bbd565b50565b610c87338383611bd7565b5050565b8173ffffffffffffffffffffffffffffffffffffffff16610caa61124a565b73ffffffffffffffffffffffffffffffffffffffff161415610d01576040517f08c379a0000000000000000000000000000000000000000000000000000000008152600401610cf8906136da565b60405180910390fd5b8060016000610d0e61124a565b73ffffffffffffffffffffffffffffffffffffffff1673ffffffffffffffffffffffffffffffffffffffff16815260200190815260200160002060008473ffffffffffffffffffffffffffffffffffffffff1673ffffffffffffffffffffffffffffffffffffffff16815260200190815260200160002060006101000a81548160ff0219169083151502179055508173ffffffffffffffffffffffffffffffffffffffff16610dbb61124a565b73ffffffffffffffffffffffffffffffffffffffff167f17307eab39ab6107e8899845ad3d59bd9653f200f220920489ca2b5937696c3183604051610e0091906134fd565b60405180910390a35050565b610e17338383611ed4565b5050565b610e23610a9e565b15610e63576040517f08c379a0000000000000000000000000000000000000000000000000000000008152600401610e5a9061361a565b60405180910390fd5b60005b8351811015610f5c57610f4b33858381518110610eac577f4e487b7100000000000000000000000000000000000000000000000000000000600052603260045260246000fd5b6020026020010151858481518110610eed577f4e487b7100000000000000000000000000000000000000000000000000000000600052603260045260246000fd5b6020026020010151858581518110610f2e577f4e487b7100000000000000000000000000000000000000000000000000000000600052603260045260246000fd5b6020026020010151604051806020016040528060008152506111f9565b80610f5590613a5d565b9050610e66565b50505050565b6000600160008473ffffffffffffffffffffffffffffffffffffffff1673ffffffffffffffffffffffffffffffffffffffff16815260200190815260200160002060008373ffffffffffffffffffffffffffffffffffffffff1673ffffffffffffffffffffffffffffffffffffffff16815260200190815260200160002060009054906101000a900460ff16905092915050565b610ffe61124a565b73ffffffffffffffffffffffffffffffffffffffff168573ffffffffffffffffffffffffffffffffffffffff16148061104457506110438561103e61124a565b610f62565b5b611083576040517f08c379a000000000000000000000000000000000000000000000000000000000815260040161107a906135fa565b60405180910390fd5b61109085858585856120f1565b5050505050565b61109f61124a565b73ffffffffffffffffffffffffffffffffffffffff166110bd610bca565b73ffffffffffffffffffffffffffffffffffffffff1614611113576040517f08c379a000000000000000000000000000000000000000000000000000000000815260040161110a906136ba565b60405180910390fd5b600073ffffffffffffffffffffffffffffffffffffffff168173ffffffffffffffffffffffffffffffffffffffff161415611183576040517f08c379a000000000000000000000000000000000000000000000000000000000815260040161117a906135ba565b60405180910390fd5b61118c81611a54565b50565b60007f01ffc9a7000000000000000000000000000000000000000000000000000000007bffffffffffffffffffffffffffffffffffffffffffffffffffffffff1916827bffffffffffffffffffffffffffffffffffffffffffffffffffffffff1916149050919050565b61120685858585856120f1565b7f9ed053bb818ff08b8353cd46f78db1f0799f31c9e4458fdb425c10eccd2efc448585858560405161123b9493929190613405565b60405180910390a15050505050565b600033905090565b600073ffffffffffffffffffffffffffffffffffffffff168473ffffffffffffffffffffffffffffffffffffffff1614156112c2576040517f08c379a00000000000000000000000000000000000000000000000000000000081526004016112b99061373a565b60405180910390fd5b8151835114611306576040517f08c379a00000000000000000000000000000000000000000000000000000000081526004016112fd9061371a565b60405180910390fd5b600061131061124a565b905061132181600087878787612373565b60005b845181101561142657838181518110611366577f4e487b7100000000000000000000000000000000000000000000000000000000600052603260045260246000fd5b60200260200101516000808784815181106113aa577f4e487b7100000000000000000000000000000000000000000000000000000000600052603260045260246000fd5b6020026020010151815260200190815260200160002060008873ffffffffffffffffffffffffffffffffffffffff1673ffffffffffffffffffffffffffffffffffffffff168152602001908152602001600020600082825461140c91906138ee565b92505081905550808061141e90613a5d565b915050611324565b508473ffffffffffffffffffffffffffffffffffffffff16600073ffffffffffffffffffffffffffffffffffffffff168273ffffffffffffffffffffffffffffffffffffffff167f4a39dc06d4c0dbc64b70af90fd698a233a518aa5d07e595d983b8c0526c8f7fb878760405161149e9291906134c6565b60405180910390a46114b58160008787878761237b565b5050505050565b600073ffffffffffffffffffffffffffffffffffffffff168473ffffffffffffffffffffffffffffffffffffffff16141561152c576040517f08c379a00000000000000000000000000000000000000000000000000000000081526004016115239061373a565b60405180910390fd5b600061153661124a565b90506115578160008761154888612562565b61155188612562565b87612373565b8260008086815260200190815260200160002060008773ffffffffffffffffffffffffffffffffffffffff1673ffffffffffffffffffffffffffffffffffffffff16815260200190815260200160002060008282546115b691906138ee565b925050819055508473ffffffffffffffffffffffffffffffffffffffff16600073ffffffffffffffffffffffffffffffffffffffff168273ffffffffffffffffffffffffffffffffffffffff167fc3d58168c5ae7397731d063d5bbf3d657854427343f4c083240f7aacaa2d0f628787604051611634929190613775565b60405180910390a461164b81600087878787612628565b5050505050565b8151835114611696576040517f08c379a000000000000000000000000000000000000000000000000000000000815260040161168d9061371a565b60405180910390fd5b600073ffffffffffffffffffffffffffffffffffffffff168473ffffffffffffffffffffffffffffffffffffffff161415611706576040517f08c379a00000000000000000000000000000000000000000000000000000000081526004016116fd9061363a565b60405180910390fd5b600061171061124a565b9050611720818787878787612373565b60005b845181101561191d576000858281518110611767577f4e487b7100000000000000000000000000000000000000000000000000000000600052603260045260246000fd5b6020026020010151905060008583815181106117ac577f4e487b7100000000000000000000000000000000000000000000000000000000600052603260045260246000fd5b60200260200101519050600080600084815260200190815260200160002060008b73ffffffffffffffffffffffffffffffffffffffff1673ffffffffffffffffffffffffffffffffffffffff1681526020019081526020016000205490508181101561184d576040517f08c379a00000000000000000000000000000000000000000000000000000000081526004016118449061369a565b60405180910390fd5b81810360008085815260200190815260200160002060008c73ffffffffffffffffffffffffffffffffffffffff1673ffffffffffffffffffffffffffffffffffffffff168152602001908152602001600020819055508160008085815260200190815260200160002060008b73ffffffffffffffffffffffffffffffffffffffff1673ffffffffffffffffffffffffffffffffffffffff168152602001908152602001600020600082825461190291906138ee565b925050819055505050508061191690613a5d565b9050611723565b508473ffffffffffffffffffffffffffffffffffffffff168673ffffffffffffffffffffffffffffffffffffffff168273ffffffffffffffffffffffffffffffffffffffff167f4a39dc06d4c0dbc64b70af90fd698a233a518aa5d07e595d983b8c0526c8f7fb87876040516119949291906134c6565b60405180910390a46119aa81878787878761237b565b505050505050565b6119ba610a9e565b6119f9576040517f08c379a00000000000000000000000000000000000000000000000000000000081526004016119f09061357a565b60405180910390fd5b6000600360146101000a81548160ff0219169083151502179055507f5db9ee0a495bf2e6ff9c91a7834c1ba4fdd244a5e8aa4e537bd38aeae4b073aa611a3d61124a565b604051611a4a9190613382565b60405180910390a1565b6000600360009054906101000a900473ffffffffffffffffffffffffffffffffffffffff16905081600360006101000a81548173ffffffffffffffffffffffffffffffffffffffff021916908373ffffffffffffffffffffffffffffffffffffffff1602179055508173ffffffffffffffffffffffffffffffffffffffff168173ffffffffffffffffffffffffffffffffffffffff167f8be0079c531659141344cd1fd0a4f28419497f9722a3daafe3b4186f6b6457e060405160405180910390a35050565b611b22610a9e565b15611b62576040517f08c379a0000000000000000000000000000000000000000000000000000000008152600401611b599061361a565b60405180910390fd5b6001600360146101000a81548160ff0219169083151502179055507f62e78cea01bee320cd4e420270b5ea74000d11b0c9f74754ebdbfc544b05a258611ba661124a565b604051611bb39190613382565b60405180910390a1565b8060029080519060200190611bd3929190612822565b5050565b600073ffffffffffffffffffffffffffffffffffffffff168373ffffffffffffffffffffffffffffffffffffffff161415611c47576040517f08c379a0000000000000000000000000000000000000000000000000000000008152600401611c3e9061367a565b60405180910390fd5b8051825114611c8b576040517f08c379a0000000000000000000000000000000000000000000000000000000008152600401611c829061371a565b60405180910390fd5b6000611c9561124a565b9050611cb581856000868660405180602001604052806000815250612373565b60005b8351811015611e4e576000848281518110611cfc577f4e487b7100000000000000000000000000000000000000000000000000000000600052603260045260246000fd5b602002602001015190506000848381518110611d41577f4e487b7100000000000000000000000000000000000000000000000000000000600052603260045260246000fd5b60200260200101519050600080600084815260200190815260200160002060008973ffffffffffffffffffffffffffffffffffffffff1673ffffffffffffffffffffffffffffffffffffffff16815260200190815260200160002054905081811015611de2576040517f08c379a0000000000000000000000000000000000000000000000000000000008152600401611dd9906135da565b60405180910390fd5b81810360008085815260200190815260200160002060008a73ffffffffffffffffffffffffffffffffffffffff1673ffffffffffffffffffffffffffffffffffffffff168152602001908152602001600020819055505050508080611e4690613a5d565b915050611cb8565b50600073ffffffffffffffffffffffffffffffffffffffff168473ffffffffffffffffffffffffffffffffffffffff168273ffffffffffffffffffffffffffffffffffffffff167f4a39dc06d4c0dbc64b70af90fd698a233a518aa5d07e595d983b8c0526c8f7fb8686604051611ec69291906134c6565b60405180910390a450505050565b600073ffffffffffffffffffffffffffffffffffffffff168373ffffffffffffffffffffffffffffffffffffffff161415611f44576040517f08c379a0000000000000000000000000000000000000000000000000000000008152600401611f3b9061367a565b60405180910390fd5b6000611f4e61124a565b9050611f7e81856000611f6087612562565b611f6987612562565b60405180602001604052806000815250612373565b600080600085815260200190815260200160002060008673ffffffffffffffffffffffffffffffffffffffff1673ffffffffffffffffffffffffffffffffffffffff16815260200190815260200160002054905082811015612015576040517f08c379a000000000000000000000000000000000000000000000000000000000815260040161200c906135da565b60405180910390fd5b82810360008086815260200190815260200160002060008773ffffffffffffffffffffffffffffffffffffffff1673ffffffffffffffffffffffffffffffffffffffff16815260200190815260200160002081905550600073ffffffffffffffffffffffffffffffffffffffff168573ffffffffffffffffffffffffffffffffffffffff168373ffffffffffffffffffffffffffffffffffffffff167fc3d58168c5ae7397731d063d5bbf3d657854427343f4c083240f7aacaa2d0f6287876040516120e2929190613775565b60405180910390a45050505050565b600073ffffffffffffffffffffffffffffffffffffffff168473ffffffffffffffffffffffffffffffffffffffff161415612161576040517f08c379a00000000000000000000000000000000000000000000000000000000081526004016121589061363a565b60405180910390fd5b600061216b61124a565b905061218b81878761217c88612562565b61218588612562565b87612373565b600080600086815260200190815260200160002060008873ffffffffffffffffffffffffffffffffffffffff1673ffffffffffffffffffffffffffffffffffffffff16815260200190815260200160002054905083811015612222576040517f08c379a00000000000000000000000000000000000000000000000000000000081526004016122199061369a565b60405180910390fd5b83810360008087815260200190815260200160002060008973ffffffffffffffffffffffffffffffffffffffff1673ffffffffffffffffffffffffffffffffffffffff168152602001908152602001600020819055508360008087815260200190815260200160002060008873ffffffffffffffffffffffffffffffffffffffff1673ffffffffffffffffffffffffffffffffffffffff16815260200190815260200160002060008282546122d791906138ee565b925050819055508573ffffffffffffffffffffffffffffffffffffffff168773ffffffffffffffffffffffffffffffffffffffff168373ffffffffffffffffffffffffffffffffffffffff167fc3d58168c5ae7397731d063d5bbf3d657854427343f4c083240f7aacaa2d0f628888604051612354929190613775565b60405180910390a461236a828888888888612628565b50505050505050565b505050505050565b61239a8473ffffffffffffffffffffffffffffffffffffffff1661280f565b1561255a578373ffffffffffffffffffffffffffffffffffffffff1663bc197c8187878686866040518663ffffffff1660e01b81526004016123e095949392919061339d565b602060405180830381600087803b1580156123fa57600080fd5b505af192505050801561242b57506040513d601f19601f820116820180604052508101906124289190612f3c565b60015b6124d157612437613b33565b806308c379a01415612494575061244c614040565b806124575750612496565b806040517f08c379a000000000000000000000000000000000000000000000000000000000815260040161248b9190613518565b60405180910390fd5b505b6040517f08c379a00000000000000000000000000000000000000000000000000000000081526004016124c89061353a565b60405180910390fd5b63bc197c8160e01b7bffffffffffffffffffffffffffffffffffffffffffffffffffffffff1916817bffffffffffffffffffffffffffffffffffffffffffffffffffffffff191614612558576040517f08c379a000000000000000000000000000000000000000000000000000000000815260040161254f9061355a565b60405180910390fd5b505b505050505050565b60606000600167ffffffffffffffff8111156125a7577f4e487b7100000000000000000000000000000000000000000000000000000000600052604160045260246000fd5b6040519080825280602002602001820160405280156125d55781602001602082028036833780820191505090505b5090508281600081518110612613577f4e487b7100000000000000000000000000000000000000000000000000000000600052603260045260246000fd5b60200260200101818152505080915050919050565b6126478473ffffffffffffffffffffffffffffffffffffffff1661280f565b15612807578373ffffffffffffffffffffffffffffffffffffffff1663f23a6e6187878686866040518663ffffffff1660e01b815260040161268d95949392919061344a565b602060405180830381600087803b1580156126a757600080fd5b505af19250505080156126d857506040513d601f19601f820116820180604052508101906126d59190612f3c565b60015b61277e576126e4613b33565b806308c379a0141561274157506126f9614040565b806127045750612743565b806040517f08c379a00000000000000000000000000000000000000000000000000000000081526004016127389190613518565b60405180910390fd5b505b6040517f08c379a00000000000000000000000000000000000000000000000000000000081526004016127759061353a565b60405180910390fd5b63f23a6e6160e01b7bffffffffffffffffffffffffffffffffffffffffffffffffffffffff1916817bffffffffffffffffffffffffffffffffffffffffffffffffffffffff191614612805576040517f08c379a00000000000000000000000000000000000000000000000000000000081526004016127fc9061355a565b60405180910390fd5b505b505050505050565b600080823b905060008111915050919050565b82805461282e906139fa565b90600052602060002090601f0160209004810192826128505760008555612897565b82601f1061286957805160ff1916838001178555612897565b82800160010185558215612897579182015b8281111561289657825182559160200191906001019061287b565b5b5090506128a491906128a8565b5090565b5b808211156128c15760008160009055506001016128a9565b5090565b60006128d86128d3846137c3565b61379e565b905080838252602082019050828560208602820111156128f757600080fd5b60005b85811015612927578161290d8882612a19565b8452602084019350602083019250506001810190506128fa565b5050509392505050565b600061294461293f846137ef565b61379e565b9050808382526020820190508285602086028201111561296357600080fd5b60005b8581101561299357816129798882612b15565b845260208401935060208301925050600181019050612966565b5050509392505050565b60006129b06129ab8461381b565b61379e565b9050828152602081018484840111156129c857600080fd5b6129d38482856139b8565b509392505050565b60006129ee6129e98461384c565b61379e565b905082815260208101848484011115612a0657600080fd5b612a118482856139b8565b509392505050565b600081359050612a28816140d6565b92915050565b600082601f830112612a3f57600080fd5b8135612a4f8482602086016128c5565b91505092915050565b600082601f830112612a6957600080fd5b8135612a79848260208601612931565b91505092915050565b600081359050612a91816140ed565b92915050565b600081359050612aa681614104565b92915050565b600081519050612abb81614104565b92915050565b600082601f830112612ad257600080fd5b8135612ae284826020860161299d565b91505092915050565b600082601f830112612afc57600080fd5b8135612b0c8482602086016129db565b91505092915050565b600081359050612b248161411b565b92915050565b600060208284031215612b3c57600080fd5b6000612b4a84828501612a19565b91505092915050565b60008060408385031215612b6657600080fd5b6000612b7485828601612a19565b9250506020612b8585828601612a19565b9150509250929050565b600080600080600060a08688031215612ba757600080fd5b6000612bb588828901612a19565b9550506020612bc688828901612a19565b945050604086013567ffffffffffffffff811115612be357600080fd5b612bef88828901612a58565b935050606086013567ffffffffffffffff811115612c0c57600080fd5b612c1888828901612a58565b925050608086013567ffffffffffffffff811115612c3557600080fd5b612c4188828901612ac1565b9150509295509295909350565b600080600080600060a08688031215612c6657600080fd5b6000612c7488828901612a19565b9550506020612c8588828901612a19565b9450506040612c9688828901612b15565b9350506060612ca788828901612b15565b925050608086013567ffffffffffffffff811115612cc457600080fd5b612cd088828901612ac1565b9150509295509295909350565b60008060408385031215612cf057600080fd5b6000612cfe85828601612a19565b9250506020612d0f85828601612a82565b9150509250929050565b60008060408385031215612d2c57600080fd5b6000612d3a85828601612a19565b9250506020612d4b85828601612b15565b9150509250929050565b600080600060608486031215612d6a57600080fd5b6000612d7886828701612a19565b9350506020612d8986828701612b15565b9250506040612d9a86828701612b15565b9150509250925092565b60008060408385031215612db757600080fd5b600083013567ffffffffffffffff811115612dd157600080fd5b612ddd85828601612a2e565b925050602083013567ffffffffffffffff811115612dfa57600080fd5b612e0685828601612a58565b9150509250929050565b600080600060608486031215612e2557600080fd5b600084013567ffffffffffffffff811115612e3f57600080fd5b612e4b86828701612a2e565b935050602084013567ffffffffffffffff811115612e6857600080fd5b612e7486828701612a58565b925050604084013567ffffffffffffffff811115612e9157600080fd5b612e9d86828701612a58565b9150509250925092565b60008060408385031215612eba57600080fd5b600083013567ffffffffffffffff811115612ed457600080fd5b612ee085828601612a58565b925050602083013567ffffffffffffffff811115612efd57600080fd5b612f0985828601612a58565b9150509250929050565b600060208284031215612f2557600080fd5b6000612f3384828501612a97565b91505092915050565b600060208284031215612f4e57600080fd5b6000612f5c84828501612aac565b91505092915050565b600060208284031215612f7757600080fd5b600082013567ffffffffffffffff811115612f9157600080fd5b612f9d84828501612aeb565b91505092915050565b600060208284031215612fb857600080fd5b6000612fc684828501612b15565b91505092915050565b60008060408385031215612fe257600080fd5b6000612ff085828601612b15565b925050602061300185828601612b15565b9150509250929050565b60006130178383613364565b60208301905092915050565b61302c81613944565b82525050565b600061303d8261388d565b61304781856138bb565b93506130528361387d565b8060005b8381101561308357815161306a888261300b565b9750613075836138ae565b925050600181019050613056565b5085935050505092915050565b61309981613956565b82525050565b60006130aa82613898565b6130b481856138cc565b93506130c48185602086016139c7565b6130cd81613b55565b840191505092915050565b60006130e3826138a3565b6130ed81856138dd565b93506130fd8185602086016139c7565b61310681613b55565b840191505092915050565b600061311e6034836138dd565b915061312982613b73565b604082019050919050565b60006131416028836138dd565b915061314c82613bc2565b604082019050919050565b60006131646014836138dd565b915061316f82613c11565b602082019050919050565b6000613187602b836138dd565b915061319282613c3a565b604082019050919050565b60006131aa6026836138dd565b91506131b582613c89565b604082019050919050565b60006131cd6024836138dd565b91506131d882613cd8565b604082019050919050565b60006131f06029836138dd565b91506131fb82613d27565b604082019050919050565b60006132136010836138dd565b915061321e82613d76565b602082019050919050565b60006132366025836138dd565b915061324182613d9f565b604082019050919050565b60006132596032836138dd565b915061326482613dee565b604082019050919050565b600061327c6023836138dd565b915061328782613e3d565b604082019050919050565b600061329f602a836138dd565b91506132aa82613e8c565b604082019050919050565b60006132c26020836138dd565b91506132cd82613edb565b602082019050919050565b60006132e56029836138dd565b91506132f082613f04565b604082019050919050565b60006133086029836138dd565b915061331382613f53565b604082019050919050565b600061332b6028836138dd565b915061333682613fa2565b604082019050919050565b600061334e6021836138dd565b915061335982613ff1565b604082019050919050565b61336d816139ae565b82525050565b61337c816139ae565b82525050565b60006020820190506133976000830184613023565b92915050565b600060a0820190506133b26000830188613023565b6133bf6020830187613023565b81810360408301526133d18186613032565b905081810360608301526133e58185613032565b905081810360808301526133f9818461309f565b90509695505050505050565b600060808201905061341a6000830187613023565b6134276020830186613023565b6134346040830185613373565b6134416060830184613373565b95945050505050565b600060a08201905061345f6000830188613023565b61346c6020830187613023565b6134796040830186613373565b6134866060830185613373565b8181036080830152613498818461309f565b90509695505050505050565b600060208201905081810360008301526134be8184613032565b905092915050565b600060408201905081810360008301526134e08185613032565b905081810360208301526134f48184613032565b90509392505050565b60006020820190506135126000830184613090565b92915050565b6000602082019050818103600083015261353281846130d8565b905092915050565b6000602082019050818103600083015261355381613111565b9050919050565b6000602082019050818103600083015261357381613134565b9050919050565b6000602082019050818103600083015261359381613157565b9050919050565b600060208201905081810360008301526135b38161317a565b9050919050565b600060208201905081810360008301526135d38161319d565b9050919050565b600060208201905081810360008301526135f3816131c0565b9050919050565b60006020820190508181036000830152613613816131e3565b9050919050565b6000602082019050818103600083015261363381613206565b9050919050565b6000602082019050818103600083015261365381613229565b9050919050565b600060208201905081810360008301526136738161324c565b9050919050565b600060208201905081810360008301526136938161326f565b9050919050565b600060208201905081810360008301526136b381613292565b9050919050565b600060208201905081810360008301526136d3816132b5565b9050919050565b600060208201905081810360008301526136f3816132d8565b9050919050565b60006020820190508181036000830152613713816132fb565b9050919050565b600060208201905081810360008301526137338161331e565b9050919050565b6000602082019050818103600083015261375381613341565b9050919050565b600060208201905061376f6000830184613373565b92915050565b600060408201905061378a6000830185613373565b6137976020830184613373565b9392505050565b60006137a86137b9565b90506137b48282613a2c565b919050565b6000604051905090565b600067ffffffffffffffff8211156137de576137dd613b04565b5b602082029050602081019050919050565b600067ffffffffffffffff82111561380a57613809613b04565b5b602082029050602081019050919050565b600067ffffffffffffffff82111561383657613835613b04565b5b61383f82613b55565b9050602081019050919050565b600067ffffffffffffffff82111561386757613866613b04565b5b61387082613b55565b9050602081019050919050565b6000819050602082019050919050565b600081519050919050565b600081519050919050565b600081519050919050565b6000602082019050919050565b600082825260208201905092915050565b600082825260208201905092915050565b600082825260208201905092915050565b60006138f9826139ae565b9150613904836139ae565b9250827fffffffffffffffffffffffffffffffffffffffffffffffffffffffffffffffff0382111561393957613938613aa6565b5b828201905092915050565b600061394f8261398e565b9050919050565b60008115159050919050565b60007fffffffff0000000000000000000000000000000000000000000000000000000082169050919050565b600073ffffffffffffffffffffffffffffffffffffffff82169050919050565b6000819050919050565b82818337600083830152505050565b60005b838110156139e55780820151818401526020810190506139ca565b838111156139f4576000848401525b50505050565b60006002820490506001821680613a1257607f821691505b60208210811415613a2657613a25613ad5565b5b50919050565b613a3582613b55565b810181811067ffffffffffffffff82111715613a5457613a53613b04565b5b80604052505050565b6000613a68826139ae565b91507fffffffffffffffffffffffffffffffffffffffffffffffffffffffffffffffff821415613a9b57613a9a613aa6565b5b600182019050919050565b7f4e487b7100000000000000000000000000000000000000000000000000000000600052601160045260246000fd5b7f4e487b7100000000000000000000000000000000000000000000000000000000600052602260045260246000fd5b7f4e487b7100000000000000000000000000000000000000000000000000000000600052604160045260246000fd5b600060033d1115613b525760046000803e613b4f600051613b66565b90505b90565b6000601f19601f8301169050919050565b60008160e01c9050919050565b7f455243313135353a207472616e7366657220746f206e6f6e204552433131353560008201527f526563656976657220696d706c656d656e746572000000000000000000000000602082015250565b7f455243313135353a204552433131353552656365697665722072656a6563746560008201527f6420746f6b656e73000000000000000000000000000000000000000000000000602082015250565b7f5061757361626c653a206e6f7420706175736564000000000000000000000000600082015250565b7f455243313135353a2062616c616e636520717565727920666f7220746865207a60008201527f65726f2061646472657373000000000000000000000000000000000000000000602082015250565b7f4f776e61626c653a206e6577206f776e657220697320746865207a65726f206160008201527f6464726573730000000000000000000000000000000000000000000000000000602082015250565b7f455243313135353a206275726e20616d6f756e7420657863656564732062616c60008201527f616e636500000000000000000000000000000000000000000000000000000000602082015250565b7f455243313135353a2063616c6c6572206973206e6f74206f776e6572206e6f7260008201527f20617070726f7665640000000000000000000000000000000000000000000000602082015250565b7f5061757361626c653a2070617573656400000000000000000000000000000000600082015250565b7f455243313135353a207472616e7366657220746f20746865207a65726f20616460008201527f6472657373000000000000000000000000000000000000000000000000000000602082015250565b7f455243313135353a207472616e736665722063616c6c6572206973206e6f742060008201527f6f776e6572206e6f7220617070726f7665640000000000000000000000000000602082015250565b7f455243313135353a206275726e2066726f6d20746865207a65726f206164647260008201527f6573730000000000000000000000000000000000000000000000000000000000602082015250565b7f455243313135353a20696e73756666696369656e742062616c616e636520666f60008201527f72207472616e7366657200000000000000000000000000000000000000000000602082015250565b7f4f776e61626c653a2063616c6c6572206973206e6f7420746865206f776e6572600082015250565b7f455243313135353a2073657474696e6720617070726f76616c2073746174757360008201527f20666f722073656c660000000000000000000000000000000000000000000000602082015250565b7f455243313135353a206163636f756e747320616e6420696473206c656e67746860008201527f206d69736d617463680000000000000000000000000000000000000000000000602082015250565b7f455243313135353a2069647320616e6420616d6f756e7473206c656e6774682060008201527f6d69736d61746368000000000000000000000000000000000000000000000000602082015250565b7f455243313135353a206d696e7420746f20746865207a65726f2061646472657360008201527f7300000000000000000000000000000000000000000000000000000000000000602082015250565b600060443d1015614050576140d3565b6140586137b9565b60043d036004823e80513d602482011167ffffffffffffffff821117156140805750506140d3565b808201805167ffffffffffffffff81111561409e57505050506140d3565b80602083010160043d0385018111156140bb5750505050506140d3565b6140ca82602001850186613a2c565b82955050505050505b90565b6140df81613944565b81146140ea57600080fd5b50565b6140f681613956565b811461410157600080fd5b50565b61410d81613962565b811461411857600080fd5b50565b614124816139ae565b811461412f57600080fd5b5056fea2646970667358221220f7a01cea45cceafe1ed398625a15dc91d7fd5cf43851f1fcb6d6a8d51be8f3bb64736f6c63430008010033a2646970667358221220aa9cbdb4a77c3b8a4c997d914a7b33e9e1f139cde4595c92a5394bd50a9297e764736f6c63430008010033",
  "immutableReferences": {},
  "source": "// SPDX-License-Identifier: MIT\r\npragma solidity ^0.8.0;\r\n\r\nimport \"./OpenDefiNFT.sol\";\r\nimport \"@openzeppelin/contracts/access/Ownable.sol\";\r\n\r\ncontract OpenDefiNFTFactory is Ownable {\r\n  string public baseMetadataURI;\r\n\r\n  event Create1155Collection(\r\n    address nftAddress\r\n    );\r\n\r\n  constructor(string memory _baseeMetadataURI) {\r\n    baseMetadataURI = _baseeMetadataURI;\r\n  }\r\n\r\n  function updateBaseMetaDataURI(string memory _newURI) external onlyOwner() returns(bool) {\r\n    baseMetadataURI = _newURI;\r\n    return true;\r\n  }\r\n\r\n  function createCollection(string memory _collectionName, string memory _collectionSymbol) external onlyOwner() {\r\n      address nftAddress = address(new OpenDefiNFT(baseMetadataURI, _collectionName, _collectionSymbol));\r\n      emit Create1155Collection( nftAddress);\r\n  }\r\n}\r\n",
  "sourcePath": "F:/Oropocket/Github_Clone/NFT/contracts/OpenDefiNFTFactory.sol",
  "compiler": {
    "name": "solc",
    "version": "0.8.1+commit.df193b15.Emscripten.clang"
  },
  "schemaVersion": "3.3.2",
  "updatedAt": "2021-10-29T03:40:46.701Z",
  "networkType": "ethereum",
  "devdoc": {
    "kind": "dev",
    "methods": {
      "owner()": {
        "details": "Returns the address of the current owner."
      },
      "renounceOwnership()": {
        "details": "Leaves the contract without owner. It will not be possible to call `onlyOwner` functions anymore. Can only be called by the current owner. NOTE: Renouncing ownership will leave the contract without an owner, thereby removing any functionality that is only available to the owner."
      },
      "transferOwnership(address)": {
        "details": "Transfers ownership of the contract to a new account (`newOwner`). Can only be called by the current owner."
      }
    },
    "version": 1
  },
  "userdoc": {
    "kind": "user",
    "methods": {},
    "version": 1
  }
}